{
  "contractName": "MFA",
  "abi": [
    {
      "inputs": [
        {
          "internalType": "address",
          "name": "",
          "type": "address"
        }
      ],
      "name": "secrets",
      "outputs": [
        {
          "internalType": "bytes32",
          "name": "",
          "type": "bytes32"
        }
      ],
      "stateMutability": "view",
      "type": "function",
      "constant": true
    },
    {
      "inputs": [
        {
          "internalType": "address",
          "name": "account",
          "type": "address"
        },
        {
          "internalType": "string",
          "name": "secret",
          "type": "string"
        }
      ],
      "name": "setSecret",
      "outputs": [],
      "stateMutability": "nonpayable",
      "type": "function"
    },
    {
      "inputs": [
        {
          "internalType": "address",
          "name": "account",
          "type": "address"
        }
      ],
      "name": "getSecret",
      "outputs": [
        {
          "internalType": "bytes32",
          "name": "",
          "type": "bytes32"
        }
      ],
      "stateMutability": "view",
      "type": "function",
      "constant": true
    },
    {
      "inputs": [
        {
          "internalType": "address",
          "name": "account",
          "type": "address"
        },
        {
          "internalType": "string",
          "name": "code",
          "type": "string"
        }
      ],
      "name": "checkCode",
      "outputs": [
        {
          "internalType": "bool",
          "name": "",
          "type": "bool"
        }
      ],
      "stateMutability": "view",
      "type": "function",
      "constant": true
    }
  ],
  "bytecode": "0x608060405234801561001057600080fd5b506105b5806100206000396000f3fe608060405234801561001057600080fd5b506004361061004c5760003560e01c80631a408ecb14610051578063284180fc146100815780634d601e12146100b1578063a8c20d93146100e1575b600080fd5b61006b600480360381019061006691906102be565b6100fd565b6040516100789190610304565b60405180910390f35b61009b600480360381019061009691906102be565b610115565b6040516100a89190610304565b60405180910390f35b6100cb60048036038101906100c69190610465565b61015d565b6040516100d891906104dc565b60405180910390f35b6100fb60048036038101906100f69190610465565b6101d9565b005b60006020528060005260406000206000915090505481565b60008060008373ffffffffffffffffffffffffffffffffffffffff1673ffffffffffffffffffffffffffffffffffffffff168152602001908152602001600020549050919050565b6000806000808573ffffffffffffffffffffffffffffffffffffffff1673ffffffffffffffffffffffffffffffffffffffff1681526020019081526020016000205490506000836040516020016101b49190610568565b6040516020818303038152906040528051906020012090508181149250505092915050565b6000816040516020016101ec9190610568565b604051602081830303815290604052805190602001209050806000808573ffffffffffffffffffffffffffffffffffffffff1673ffffffffffffffffffffffffffffffffffffffff16815260200190815260200160002081905550505050565b6000604051905090565b600080fd5b600080fd5b600073ffffffffffffffffffffffffffffffffffffffff82169050919050565b600061028b82610260565b9050919050565b61029b81610280565b81146102a657600080fd5b50565b6000813590506102b881610292565b92915050565b6000602082840312156102d4576102d3610256565b5b60006102e2848285016102a9565b91505092915050565b6000819050919050565b6102fe816102eb565b82525050565b600060208201905061031960008301846102f5565b92915050565b600080fd5b600080fd5b6000601f19601f8301169050919050565b7f4e487b7100000000000000000000000000000000000000000000000000000000600052604160045260246000fd5b61037282610329565b810181811067ffffffffffffffff821117156103915761039061033a565b5b80604052505050565b60006103a461024c565b90506103b08282610369565b919050565b600067ffffffffffffffff8211156103d0576103cf61033a565b5b6103d982610329565b9050602081019050919050565b82818337600083830152505050565b6000610408610403846103b5565b61039a565b90508281526020810184848401111561042457610423610324565b5b61042f8482856103e6565b509392505050565b600082601f83011261044c5761044b61031f565b5b813561045c8482602086016103f5565b91505092915050565b6000806040838503121561047c5761047b610256565b5b600061048a858286016102a9565b925050602083013567ffffffffffffffff8111156104ab576104aa61025b565b5b6104b785828601610437565b9150509250929050565b60008115159050919050565b6104d6816104c1565b82525050565b60006020820190506104f160008301846104cd565b92915050565b600081519050919050565b600081905092915050565b60005b8381101561052b578082015181840152602081019050610510565b60008484015250505050565b6000610542826104f7565b61054c8185610502565b935061055c81856020860161050d565b80840191505092915050565b60006105748284610537565b91508190509291505056fea2646970667358221220bda29b7c0e610cb96bd2cea6da4e73c5a83630ea901d97a8936fcdddf47f51ae64736f6c63430008130033",
  "immutableReferences": {},
  "source": "//SPDX-License-Identifier: MIT\npragma solidity ^0.8.0;\n\ncontract MFA {\n   mapping(address => bytes32) public secrets;\n\n   function setSecret(address account, string memory secret) public {\n       bytes32 hashedSecret = keccak256(abi.encodePacked(secret));\n       secrets[account] = hashedSecret;\n   }\n\n   function getSecret(address account) public view returns (bytes32) {\n       return secrets[account];\n   }\n\n   function checkCode(address account, string memory code) public view returns (bool) {\n       bytes32 secret = secrets[account];\n       bytes32 hashedSecret = keccak256(abi.encodePacked(code));\n       return hashedSecret == secret;\n   }\n \n}\n",
  "sourcePath": "/Users/macintoshhd/celo-mfa/contracts/MFA.sol",
  "compiler": {
    "name": "solc",
    "version": "0.8.19+commit.7dd6d404.Emscripten.clang"
  },
  "schemaVersion": "3.4.13",
  "updatedAt": "2023-04-15T17:00:59.918Z",
  "networkType": "ethereum",
  "devdoc": {
    "kind": "dev",
    "methods": {},
    "version": 1
  },
  "userdoc": {
    "kind": "user",
    "methods": {},
    "version": 1
  }
}